{
  "contractName": "SongRegistry",
  "abi": [
    {
      "constant": true,
      "inputs": [
        {
          "internalType": "uint256",
          "name": "",
          "type": "uint256"
        },
        {
          "internalType": "uint256",
          "name": "",
          "type": "uint256"
        }
      ],
      "name": "buyers",
      "outputs": [
        {
          "internalType": "address",
          "name": "",
          "type": "address"
        }
      ],
      "payable": false,
      "stateMutability": "view",
      "type": "function"
    },
    {
      "constant": true,
      "inputs": [
        {
          "internalType": "uint256",
          "name": "",
          "type": "uint256"
        }
      ],
      "name": "songs",
      "outputs": [
        {
          "internalType": "address payable",
          "name": "owner",
          "type": "address"
        },
        {
          "internalType": "string",
          "name": "title",
          "type": "string"
        },
        {
          "internalType": "string",
          "name": "url",
          "type": "string"
        },
        {
          "internalType": "uint256",
          "name": "price",
          "type": "uint256"
        }
      ],
      "payable": false,
      "stateMutability": "view",
      "type": "function"
    },
    {
      "constant": false,
      "inputs": [
        {
          "internalType": "string",
          "name": "title",
          "type": "string"
        },
        {
          "internalType": "string",
          "name": "url",
          "type": "string"
        },
        {
          "internalType": "uint256",
          "name": "price",
          "type": "uint256"
        }
      ],
      "name": "register",
      "outputs": [
        {
          "internalType": "uint256",
          "name": "",
          "type": "uint256"
        }
      ],
      "payable": false,
      "stateMutability": "nonpayable",
      "type": "function"
    },
    {
      "constant": true,
      "inputs": [],
      "name": "numberOfSongs",
      "outputs": [
        {
          "internalType": "uint256",
          "name": "",
          "type": "uint256"
        }
      ],
      "payable": false,
      "stateMutability": "view",
      "type": "function"
    },
    {
      "constant": true,
      "inputs": [
        {
          "internalType": "uint256",
          "name": "songId",
          "type": "uint256"
        }
      ],
      "name": "isBuyer",
      "outputs": [
        {
          "internalType": "bool",
          "name": "",
          "type": "bool"
        }
      ],
      "payable": false,
      "stateMutability": "view",
      "type": "function"
    },
    {
      "constant": false,
      "inputs": [
        {
          "internalType": "uint256",
          "name": "songId",
          "type": "uint256"
        }
      ],
      "name": "buy",
      "outputs": [],
      "payable": true,
      "stateMutability": "payable",
      "type": "function"
    }
  ],
  "bytecode": "0x608060405234801561001057600080fd5b50610b8b806100206000396000f3fe6080604052600436106100555760003560e01c806327e7875a1461005a578063304cff30146100df5780634d8a0b0114610239578063d96a094a14610264578063e8a6055814610292578063fecf415a1461040f575b600080fd5b34801561006657600080fd5b5061009d6004803603604081101561007d57600080fd5b810190808035906020019092919080359060200190929190505050610462565b604051808273ffffffffffffffffffffffffffffffffffffffff1673ffffffffffffffffffffffffffffffffffffffff16815260200191505060405180910390f35b3480156100eb57600080fd5b506101186004803603602081101561010257600080fd5b81019080803590602001909291905050506104ad565b604051808573ffffffffffffffffffffffffffffffffffffffff1673ffffffffffffffffffffffffffffffffffffffff1681526020018060200180602001848152602001838103835286818151815260200191508051906020019080838360005b83811015610194578082015181840152602081019050610179565b50505050905090810190601f1680156101c15780820380516001836020036101000a031916815260200191505b50838103825285818151815260200191508051906020019080838360005b838110156101fa5780820151818401526020810190506101df565b50505050905090810190601f1680156102275780820380516001836020036101000a031916815260200191505b50965050505050505060405180910390f35b34801561024557600080fd5b5061024e61063a565b6040518082815260200191505060405180910390f35b6102906004803603602081101561027a57600080fd5b8101908080359060200190929190505050610646565b005b34801561029e57600080fd5b506103f9600480360360608110156102b557600080fd5b81019080803590602001906401000000008111156102d257600080fd5b8201836020820111156102e457600080fd5b8035906020019184600183028401116401000000008311171561030657600080fd5b91908080601f016020809104026020016040519081016040528093929190818152602001838380828437600081840152601f19601f8201169050808301925050505050505091929192908035906020019064010000000081111561036957600080fd5b82018360208201111561037b57600080fd5b8035906020019184600183028401116401000000008311171561039d57600080fd5b91908080601f016020809104026020016040519081016040528093929190818152602001838380828437600081840152601f19601f820116905080830192505050505050509192919290803590602001909291905050506107c3565b6040518082815260200191505060405180910390f35b34801561041b57600080fd5b506104486004803603602081101561043257600080fd5b8101908080359060200190929190505050610954565b604051808215151515815260200191505060405180910390f35b6001602052816000526040600020818154811061047b57fe5b906000526020600020016000915091509054906101000a900473ffffffffffffffffffffffffffffffffffffffff1681565b600081815481106104ba57fe5b90600052602060002090600402016000915090508060000160009054906101000a900473ffffffffffffffffffffffffffffffffffffffff1690806001018054600181600116156101000203166002900480601f01602080910402602001604051908101604052809291908181526020018280546001816001161561010002031660029004801561058c5780601f106105615761010080835404028352916020019161058c565b820191906000526020600020905b81548152906001019060200180831161056f57829003601f168201915b505050505090806002018054600181600116156101000203166002900480601f01602080910402602001604051908101604052809291908181526020018280546001816001161561010002031660029004801561062a5780601f106105ff5761010080835404028352916020019161062a565b820191906000526020600020905b81548152906001019060200180831161060d57829003601f168201915b5050505050908060030154905084565b60008080549050905090565b600080828154811061065457fe5b90600052602060002090600402019050806003015434146106dd576040517f08c379a000000000000000000000000000000000000000000000000000000000815260040180806020018281038252601b8152602001807f56616c756520646f6573206e6f74206d617463682070726963652e000000000081525060200191505060405180910390fd5b600160008381526020019081526020016000203390806001815401808255809150509060018203906000526020600020016000909192909190916101000a81548173ffffffffffffffffffffffffffffffffffffffff021916908373ffffffffffffffffffffffffffffffffffffffff160217905550508060000160009054906101000a900473ffffffffffffffffffffffffffffffffffffffff1673ffffffffffffffffffffffffffffffffffffffff166108fc349081150290604051600060405180830381858888f193505050501580156107be573d6000803e3d6000fd5b505050565b60006107cd610a73565b60405180608001604052803373ffffffffffffffffffffffffffffffffffffffff1681526020018681526020018581526020018481525090506000819080600181540180825580915050906001820390600052602060002090600402016000909192909190915060008201518160000160006101000a81548173ffffffffffffffffffffffffffffffffffffffff021916908373ffffffffffffffffffffffffffffffffffffffff1602179055506020820151816001019080519060200190610897929190610ab1565b5060408201518160020190805190602001906108b4929190610ab1565b50606082015181600301555050506001600060016000805490500381526020019081526020016000203390806001815401808255809150509060018203906000526020600020016000909192909190916101000a81548173ffffffffffffffffffffffffffffffffffffffff021916908373ffffffffffffffffffffffffffffffffffffffff160217905550506001600080549050039150509392505050565b60006060600160008481526020019081526020016000208054806020026020016040519081016040528092919081815260200182805480156109eb57602002820191906000526020600020905b8160009054906101000a900473ffffffffffffffffffffffffffffffffffffffff1673ffffffffffffffffffffffffffffffffffffffff16815260200190600101908083116109a1575b50505050509050600080905060008090505b8251811015610a68573373ffffffffffffffffffffffffffffffffffffffff16838281518110610a2957fe5b602002602001015173ffffffffffffffffffffffffffffffffffffffff161415610a565760019150610a5b565b600091505b80806001019150506109fd565b508092505050919050565b6040518060800160405280600073ffffffffffffffffffffffffffffffffffffffff1681526020016060815260200160608152602001600081525090565b828054600181600116156101000203166002900490600052602060002090601f016020900481019282601f10610af257805160ff1916838001178555610b20565b82800160010185558215610b20579182015b82811115610b1f578251825591602001919060010190610b04565b5b509050610b2d9190610b31565b5090565b610b5391905b80821115610b4f576000816000905550600101610b37565b5090565b9056fea265627a7a7231582094d4d24ea5dada2089ce8edc0f5c2ab191cf044315953cc4b76d628e1f7ed60a64736f6c63430005100032",
  "source": "pragma solidity >=0.5.0;\n\ncontract SongRegistry {\n\n    //create struct with, title owner, url and price\n    struct Song {\n\n        address payable owner;\n        string title;\n        string url;\n        uint price;\n    }\n\n    // create struct array of song\n    Song[] public songs;\n    \n    // create mapping that will map song id to array of addres of owns\n    mapping(uint => address[]) public buyers;\n\n    // function to register song\n    // should add song to array of song\n    //it should set set owner to be first buyer\n    function register(string memory title, string memory url, uint price) public returns(uint) {\n        \n        // push song to array\n        Song memory song = Song(msg.sender, title, url, price);\n        songs.push(song);\n        buyers[songs.length -1].push(msg.sender);\n        return songs.length - 1;\n    }\n    function numberOfSongs() public view returns(uint) {\n        // gives length\n        return songs.length;\n    }\n\n    function isBuyer(uint songId) public view returns(bool) {\n        // loop through address to see if the songid is an owner\n        // use storage since buyer is in storage\n        address[] memory songBuyers = buyers[songId];\n        bool buyer = false;\n        for (uint i = 0; i < songBuyers.length; i++) {\n            if (songBuyers[i] == msg.sender) {\n                buyer = true;\n            } else {\n                buyer = false;\n            }\n\n        }\n        return buyer;\n    }\n\n    //function to buy song given song id\n    function buy(uint songId) public payable {\n        //gets song from array\n        Song storage song = songs[songId];\n        require(msg.value == song.price, \"Value does not match price.\");\n        buyers[songId].push(msg.sender);\n        song.owner.transfer(msg.value);\n\n    }\n\n}",
  "sourcePath": "/Users/zanelekubheka/SongRegistry/contracts/SongRegistry.sol",
  "compiler": {
    "name": "solc",
    "version": "0.5.16+commit.9c3226ce.Emscripten.clang"
  },
  "schemaVersion": "3.0.23",
  "updatedAt": "2020-02-22T14:59:25.493Z",
  "devdoc": {
    "methods": {}
  },
  "userdoc": {
    "methods": {}
  }
}